:100000000EC015C014C013C02AC011C010C00FC04C
:100010000EC00DC00CC00BC00AC009C008C011241E
:100020001FBECFE5D2E0DEBFCDBF62D067C0E8CF54
:10003000CF93DF9300D0CDB7DEB79A83898388E36F
:1000400090E0FC01308188E390E028E02327FC0168
:10005000208300000F900F90DF91CF9108951F92A1
:100060000F920FB60F9211242F933F934F935F93EC
:100070006F937F938F939F93AF93BF93EF93FF9370
:10008000CF93DF93CDB7DEB788E090E0D1DF0000FB
:10009000DF91CF91FF91EF91BF91AF919F918F91A0
:1000A0007F916F915F914F913F912F910F900FBE74
:1000B0000F901F901895CF93DF93CDB7DEB787E3EE
:1000C00090E028E0FC01208380E590E029E0FC013D
:1000D00020838EE490E022E3FC01208389E590E018
:1000E00024E0FC01208378940000DF91CF910895F3
:1000F000CF93DF93CDB7DEB7DEDFFFCFF894FFCF2E
:00000001FF
