:100000000EC015C014C013C036C011C010C00FC040
:100010000EC00DC00CC00BC00AC009C008C011241E
:100020001FBECFE5D2E0DEBFCDBF71D077C0E8CF35
:10003000CF93DF9300D0CDB7DEB79A83898388E36F
:1000400090E0FC01308188E390E028E02327FC0168
:10005000208300000F900F90DF91CF910895CF93F0
:10006000DF93CDB7DEB788E090E0E2DF80E090E09C
:10007000DF91CF9108951F920F920FB60F92112426
:100080002F933F934F935F936F937F938F939F93A0
:10009000AF93BF93EF93FF93CF93DF9300D0CDB790
:1000A000DEB7DDDF9A83898300000F900F90DF9128
:1000B000CF91FF91EF91BF91AF919F918F917F91E0
:1000C0006F915F914F913F912F910F900FBE0F90C5
:1000D0001F901895CF93DF93CDB7DEB787E390E0FD
:1000E00028E0FC01208380E590E02DE0FC012083E6
:1000F0008EE490E02AEFFC01208389E590E024E67D
:10010000FC01208378940000DF91CF910895CF9374
:10011000DF93CDB7DEB7DEDF8895FECFF894FFCF53
:00000001FF
