:100000000EC01DC01CC03FC01AC019C018C017C008
:1000100016C015C014C013C012C011C010C01124E6
:100020001FBECFE5D2E0DEBFCDBF20E0A0E6B0E04E
:1000300001C01D92A236B207E1F781D087C0E0CFA0
:10004000CF93DF9300D0CDB7DEB79A83898388E35F
:1000500090E0FC01308188E390E028E02327FC0158
:10006000208300000F900F90DF91CF910895CF93E0
:10007000DF93CDB7DEB788E090E0E2DF80E090E08C
:10008000DF91CF9108951F920F920FB60F92112416
:100090002F933F934F935F936F937F938F939F9390
:1000A000AF93BF93EF93FF93CF93DF93CDB7DEB7BB
:1000B00080916000909161008B3F910530F010922B
:1000C000610010926000D3DF09C0809160009091C0
:1000D0006100019690936100809360000000DF91C1
:1000E000CF91FF91EF91BF91AF919F918F917F91B0
:1000F0006F915F914F913F912F910F900FBE0F9095
:100100001F901895CF93DF93CDB7DEB787E390E0CC
:1001100028E0FC01208380E590E02BE8FC012083AF
:100120008EE490E024E6FC01208389E590E020E461
:10013000FC01208378940000DF91CF910895CF9344
:10014000DF93CDB7DEB7DEDF8895FECFF894FFCF23
:00000001FF
