:100000000EC028C027C035C125C024C023C022C0CF
:10001000FBC020C01FC01EC01DC01CC01BC01124BF
:100020001FBECFE5D2E0DEBFCDBF10E0A0E6B0E05E
:10003000E2E0F3E002C005900D92A236B107D9F7D5
:1000400020E0A2E6B0E001C01D92A736B207E1F7BA
:100050004FD155C1D5CFCF93DF93CDB7DEB785E56F
:1000600090E0FC01208185E590E02064FC01208384
:1000700087E390E0FC01208187E390E02260FC01AF
:10008000208387E390E0FC01208187E390E02860F3
:10009000FC01208387E390E0FC01208187E390E06E
:1000A0002061FC01208387E290E021E2FC012083B3
:1000B00086E290E02DE8FC0120838AE490E023E2D0
:1000C000FC01208383E590E02AE0FC01208389E4A1
:1000D00090E02FEFFC01208388E490E02FE7FC0103
:1000E000208380E590E02DEDFC0120838EE490E0FC
:1000F00022EDFC01208389E590E020E4FC012083CF
:10010000789486E290E0FC01208186E290E0206411
:10011000FC0120830000DF91CF910895CF93DF93FE
:1001200000D0CDB7DEB79A83898388E390E0FC01E5
:100130008081982F8981292F282788E390E0FC016E
:10014000208300000F900F90DF91CF910895CF93FF
:10015000DF931F92CDB7DEB7898387E290E0FC0181
:100160008081982F907F89818F70292F282B87E29B
:1001700090E0FC01208380916000882371F086E28A
:1001800090E0FC01208186E290E02064FC01208365
:100190001092600080E190E0C1DF00000F90DF91DD
:1001A000CF910895CF93DF93CDB7DEB70000DF91F5
:1001B000CF910895CF93DF93CDB7DEB781E0C7DF4E
:1001C00080916200282F30E080916300909164005C
:1001D000820F931F9093640080936300809163006B
:1001E0009091640096958795909364008093630046
:1001F000209163003091640088E490E0FC0120834A
:100200000000DF91CF9108951F920F920FB60F92C9
:1002100011242F933F934F935F936F937F938F930B
:100220009F93AF93BF93EF93FF93CF93DF93CDB79C
:10023000DEB788E090E072DF85E290E0FC0180812B
:100240008093620081E0809360000000DF91CF9195
:10025000FF91EF91BF91AF919F918F917F916F919E
:100260005F914F913F912F910F900FBE0F901F9074
:1002700018951F920F920FB60F9211242F933F9350
:100280004F935F936F937F938F939F93AF93BF939E
:10029000EF93FF93CF93DF93CDB7DEB78BDF8091E2
:1002A0006500909166000B9730F0109266001092F6
:1002B000650078DF09C08091650090916600019625
:1002C00090936600809365000000DF91CF91FF91CD
:1002D000EF91BF91AF919F918F917F916F915F91BE
:1002E0004F913F912F910F900FBE0F901F90189537
:1002F000CF93DF93CDB7DEB7AEDE8895FECFF8940F
:02030000FFCF2D
:020302000100F8
:00000001FF
